{
  "contractName": "MyERC20",
  "abi": [
    {
      "inputs": [
        {
          "internalType": "string",
          "name": "getName",
          "type": "string"
        },
        {
          "internalType": "string",
          "name": "getSymbol",
          "type": "string"
        }
      ],
      "stateMutability": "nonpayable",
      "type": "constructor"
    },
    {
      "anonymous": false,
      "inputs": [
        {
          "indexed": true,
          "internalType": "address",
          "name": "owner",
          "type": "address"
        },
        {
          "indexed": true,
          "internalType": "address",
          "name": "spender",
          "type": "address"
        },
        {
          "indexed": false,
          "internalType": "uint256",
          "name": "oldAmount",
          "type": "uint256"
        },
        {
          "indexed": false,
          "internalType": "uint256",
          "name": "amount",
          "type": "uint256"
        }
      ],
      "name": "Approval",
      "type": "event"
    },
    {
      "anonymous": false,
      "inputs": [
        {
          "indexed": true,
          "internalType": "address",
          "name": "from",
          "type": "address"
        },
        {
          "indexed": true,
          "internalType": "address",
          "name": "to",
          "type": "address"
        },
        {
          "indexed": false,
          "internalType": "uint256",
          "name": "amount",
          "type": "uint256"
        }
      ],
      "name": "Transfer",
      "type": "event"
    },
    {
      "anonymous": false,
      "inputs": [
        {
          "indexed": true,
          "internalType": "address",
          "name": "spender",
          "type": "address"
        },
        {
          "indexed": true,
          "internalType": "address",
          "name": "from",
          "type": "address"
        },
        {
          "indexed": true,
          "internalType": "address",
          "name": "to",
          "type": "address"
        },
        {
          "indexed": false,
          "internalType": "uint256",
          "name": "amount",
          "type": "uint256"
        }
      ],
      "name": "Transfer",
      "type": "event"
    },
    {
      "inputs": [
        {
          "internalType": "address",
          "name": "",
          "type": "address"
        },
        {
          "internalType": "address",
          "name": "",
          "type": "address"
        }
      ],
      "name": "_allowances",
      "outputs": [
        {
          "internalType": "uint256",
          "name": "",
          "type": "uint256"
        }
      ],
      "stateMutability": "view",
      "type": "function",
      "constant": true
    },
    {
      "inputs": [],
      "name": "_decimals",
      "outputs": [
        {
          "internalType": "uint8",
          "name": "",
          "type": "uint8"
        }
      ],
      "stateMutability": "view",
      "type": "function",
      "constant": true
    },
    {
      "inputs": [],
      "name": "_name",
      "outputs": [
        {
          "internalType": "string",
          "name": "",
          "type": "string"
        }
      ],
      "stateMutability": "view",
      "type": "function",
      "constant": true
    },
    {
      "inputs": [],
      "name": "_symbol",
      "outputs": [
        {
          "internalType": "string",
          "name": "",
          "type": "string"
        }
      ],
      "stateMutability": "view",
      "type": "function",
      "constant": true
    },
    {
      "inputs": [],
      "name": "_totalSupply",
      "outputs": [
        {
          "internalType": "uint256",
          "name": "",
          "type": "uint256"
        }
      ],
      "stateMutability": "view",
      "type": "function",
      "constant": true
    },
    {
      "inputs": [],
      "name": "name",
      "outputs": [
        {
          "internalType": "string",
          "name": "",
          "type": "string"
        }
      ],
      "stateMutability": "view",
      "type": "function",
      "constant": true
    },
    {
      "inputs": [],
      "name": "symbol",
      "outputs": [
        {
          "internalType": "string",
          "name": "",
          "type": "string"
        }
      ],
      "stateMutability": "view",
      "type": "function",
      "constant": true
    },
    {
      "inputs": [],
      "name": "decimals",
      "outputs": [
        {
          "internalType": "uint8",
          "name": "",
          "type": "uint8"
        }
      ],
      "stateMutability": "view",
      "type": "function",
      "constant": true
    },
    {
      "inputs": [],
      "name": "totalSupply",
      "outputs": [
        {
          "internalType": "uint256",
          "name": "",
          "type": "uint256"
        }
      ],
      "stateMutability": "view",
      "type": "function",
      "constant": true
    },
    {
      "inputs": [
        {
          "internalType": "address",
          "name": "account",
          "type": "address"
        }
      ],
      "name": "balanceOf",
      "outputs": [
        {
          "internalType": "uint256",
          "name": "",
          "type": "uint256"
        }
      ],
      "stateMutability": "view",
      "type": "function",
      "constant": true
    },
    {
      "inputs": [
        {
          "internalType": "address",
          "name": "recipient",
          "type": "address"
        },
        {
          "internalType": "uint256",
          "name": "amount",
          "type": "uint256"
        }
      ],
      "name": "transfer",
      "outputs": [
        {
          "internalType": "bool",
          "name": "",
          "type": "bool"
        }
      ],
      "stateMutability": "nonpayable",
      "type": "function"
    },
    {
      "inputs": [
        {
          "internalType": "address",
          "name": "owner",
          "type": "address"
        },
        {
          "internalType": "address",
          "name": "spender",
          "type": "address"
        }
      ],
      "name": "allowance",
      "outputs": [
        {
          "internalType": "uint256",
          "name": "",
          "type": "uint256"
        }
      ],
      "stateMutability": "view",
      "type": "function",
      "constant": true
    },
    {
      "inputs": [
        {
          "internalType": "address",
          "name": "spender",
          "type": "address"
        },
        {
          "internalType": "uint256",
          "name": "amount",
          "type": "uint256"
        }
      ],
      "name": "approve",
      "outputs": [
        {
          "internalType": "bool",
          "name": "",
          "type": "bool"
        }
      ],
      "stateMutability": "nonpayable",
      "type": "function"
    },
    {
      "inputs": [
        {
          "internalType": "address",
          "name": "sender",
          "type": "address"
        },
        {
          "internalType": "address",
          "name": "recipient",
          "type": "address"
        },
        {
          "internalType": "uint256",
          "name": "amount",
          "type": "uint256"
        }
      ],
      "name": "transferFrom",
      "outputs": [
        {
          "internalType": "bool",
          "name": "",
          "type": "bool"
        }
      ],
      "stateMutability": "nonpayable",
      "type": "function"
    }
  ],
  "bytecode": "0x60806040523480156200001157600080fd5b50604051620019bc380380620019bc833981810160405281019062000037919062000206565b81600390805190602001906200004f929190620000e4565b50806004908051906020019062000068929190620000e4565b506012600560006101000a81548160ff021916908360ff1602179055506a52b7d2dcc80cd2e40000006002819055506002546000803373ffffffffffffffffffffffffffffffffffffffff1673ffffffffffffffffffffffffffffffffffffffff168152602001908152602001600020819055505050620003e9565b828054620000f2906200030e565b90600052602060002090601f01602090048101928262000116576000855562000162565b82601f106200013157805160ff191683800117855562000162565b8280016001018555821562000162579182015b828111156200016157825182559160200191906001019062000144565b5b50905062000171919062000175565b5090565b5b808211156200019057600081600090555060010162000176565b5090565b6000620001ab620001a584620002a2565b62000279565b905082815260208101848484011115620001c457600080fd5b620001d1848285620002d8565b509392505050565b600082601f830112620001eb57600080fd5b8151620001fd84826020860162000194565b91505092915050565b600080604083850312156200021a57600080fd5b600083015167ffffffffffffffff8111156200023557600080fd5b6200024385828601620001d9565b925050602083015167ffffffffffffffff8111156200026157600080fd5b6200026f85828601620001d9565b9150509250929050565b60006200028562000298565b905062000293828262000344565b919050565b6000604051905090565b600067ffffffffffffffff821115620002c057620002bf620003a9565b5b620002cb82620003d8565b9050602081019050919050565b60005b83811015620002f8578082015181840152602081019050620002db565b8381111562000308576000848401525b50505050565b600060028204905060018216806200032757607f821691505b602082108114156200033e576200033d6200037a565b5b50919050565b6200034f82620003d8565b810181811067ffffffffffffffff82111715620003715762000370620003a9565b5b80604052505050565b7f4e487b7100000000000000000000000000000000000000000000000000000000600052602260045260246000fd5b7f4e487b7100000000000000000000000000000000000000000000000000000000600052604160045260246000fd5b6000601f19601f8301169050919050565b6115c380620003f96000396000f3fe608060405234801561001057600080fd5b50600436106100ea5760003560e01c80633eaaf86b1161008c578063a9059cbb11610066578063a9059cbb14610263578063b09f126614610293578063d28d8852146102b1578063dd62ed3e146102cf576100ea565b80633eaaf86b146101f757806370a082311461021557806395d89b4114610245576100ea565b806318160ddd116100c857806318160ddd1461016d57806323b872dd1461018b578063313ce567146101bb57806332424aa3146101d9576100ea565b8063024c2ddd146100ef57806306fdde031461011f578063095ea7b31461013d575b600080fd5b61010960048036038101906101049190610da3565b6102ff565b60405161011691906110e2565b60405180910390f35b610127610324565b6040516101349190610fe0565b60405180910390f35b61015760048036038101906101529190610e2e565b6103b6565b6040516101649190610fc5565b60405180910390f35b6101756104d0565b60405161018291906110e2565b60405180910390f35b6101a560048036038101906101a09190610ddf565b6104da565b6040516101b29190610fc5565b60405180910390f35b6101c361064a565b6040516101d09190611126565b60405180910390f35b6101e1610661565b6040516101ee9190611126565b60405180910390f35b6101ff610674565b60405161020c91906110e2565b60405180910390f35b61022f600480360381019061022a9190610d7a565b61067a565b60405161023c91906110e2565b60405180910390f35b61024d6106c2565b60405161025a9190610fe0565b60405180910390f35b61027d60048036038101906102789190610e2e565b610754565b60405161028a9190610fc5565b60405180910390f35b61029b6107d0565b6040516102a89190610fe0565b60405180910390f35b6102b961085e565b6040516102c69190610fe0565b60405180910390f35b6102e960048036038101906102e49190610da3565b6108ec565b6040516102f691906110e2565b60405180910390f35b6001602052816000526040600020602052806000526040600020600091509150505481565b6060600380546103339061126f565b80601f016020809104026020016040519081016040528092919081815260200182805461035f9061126f565b80156103ac5780601f10610381576101008083540402835291602001916103ac565b820191906000526020600020905b81548152906001019060200180831161038f57829003601f168201915b5050505050905090565b600080600160003373ffffffffffffffffffffffffffffffffffffffff1673ffffffffffffffffffffffffffffffffffffffff16815260200190815260200160002060008573ffffffffffffffffffffffffffffffffffffffff1673ffffffffffffffffffffffffffffffffffffffff168152602001908152602001600020549050826000803373ffffffffffffffffffffffffffffffffffffffff1673ffffffffffffffffffffffffffffffffffffffff1681526020019081526020016000205410156104b9576040517f08c379a00000000000000000000000000000000000000000000000000000000081526004016104b090611062565b60405180910390fd5b6104c533858386610973565b600191505092915050565b6000600254905090565b60006104e7848484610b41565b8273ffffffffffffffffffffffffffffffffffffffff168473ffffffffffffffffffffffffffffffffffffffff163373ffffffffffffffffffffffffffffffffffffffff167fd1398bee19313d6bf672ccb116e51f4a1a947e91c757907f51fbb5b5e56c698f8560405161055b91906110e2565b60405180910390a46000600160008673ffffffffffffffffffffffffffffffffffffffff1673ffffffffffffffffffffffffffffffffffffffff16815260200190815260200160002060003373ffffffffffffffffffffffffffffffffffffffff1673ffffffffffffffffffffffffffffffffffffffff16815260200190815260200160002054905082811015610627576040517f08c379a000000000000000000000000000000000000000000000000000000000815260040161061e90611082565b60405180910390fd5b61063e853383868561063991906111b3565b610973565b60019150509392505050565b6000600560009054906101000a900460ff16905090565b600560009054906101000a900460ff1681565b60025481565b60008060008373ffffffffffffffffffffffffffffffffffffffff1673ffffffffffffffffffffffffffffffffffffffff168152602001908152602001600020549050919050565b6060600480546106d19061126f565b80601f01602080910402602001604051908101604052809291908181526020018280546106fd9061126f565b801561074a5780601f1061071f5761010080835404028352916020019161074a565b820191906000526020600020905b81548152906001019060200180831161072d57829003601f168201915b5050505050905090565b6000610761338484610b41565b8273ffffffffffffffffffffffffffffffffffffffff163373ffffffffffffffffffffffffffffffffffffffff167fddf252ad1be2c89b69c2b068fc378daa952ba7f163c4a11628f55a4df523b3ef846040516107be91906110e2565b60405180910390a36001905092915050565b600480546107dd9061126f565b80601f01602080910402602001604051908101604052809291908181526020018280546108099061126f565b80156108565780601f1061082b57610100808354040283529160200191610856565b820191906000526020600020905b81548152906001019060200180831161083957829003601f168201915b505050505081565b6003805461086b9061126f565b80601f01602080910402602001604051908101604052809291908181526020018280546108979061126f565b80156108e45780601f106108b9576101008083540402835291602001916108e4565b820191906000526020600020905b8154815290600101906020018083116108c757829003601f168201915b505050505081565b6000600160008473ffffffffffffffffffffffffffffffffffffffff1673ffffffffffffffffffffffffffffffffffffffff16815260200190815260200160002060008373ffffffffffffffffffffffffffffffffffffffff1673ffffffffffffffffffffffffffffffffffffffff16815260200190815260200160002054905092915050565b600073ffffffffffffffffffffffffffffffffffffffff168473ffffffffffffffffffffffffffffffffffffffff1614156109e3576040517f08c379a00000000000000000000000000000000000000000000000000000000081526004016109da906110c2565b60405180910390fd5b600073ffffffffffffffffffffffffffffffffffffffff168373ffffffffffffffffffffffffffffffffffffffff161415610a53576040517f08c379a0000000000000000000000000000000000000000000000000000000008152600401610a4a90611022565b60405180910390fd5b80600160008673ffffffffffffffffffffffffffffffffffffffff1673ffffffffffffffffffffffffffffffffffffffff16815260200190815260200160002060008573ffffffffffffffffffffffffffffffffffffffff1673ffffffffffffffffffffffffffffffffffffffff168152602001908152602001600020819055508273ffffffffffffffffffffffffffffffffffffffff168473ffffffffffffffffffffffffffffffffffffffff167fb3fd5071835887567a0671151121894ddccc2842f1d10bedad13e0d17cace9a78484604051610b339291906110fd565b60405180910390a350505050565b600073ffffffffffffffffffffffffffffffffffffffff168373ffffffffffffffffffffffffffffffffffffffff161415610bb1576040517f08c379a0000000000000000000000000000000000000000000000000000000008152600401610ba8906110a2565b60405180910390fd5b600073ffffffffffffffffffffffffffffffffffffffff168273ffffffffffffffffffffffffffffffffffffffff161415610c21576040517f08c379a0000000000000000000000000000000000000000000000000000000008152600401610c1890611002565b60405180910390fd5b60008060008573ffffffffffffffffffffffffffffffffffffffff1673ffffffffffffffffffffffffffffffffffffffff16815260200190815260200160002054905081811015610ca7576040517f08c379a0000000000000000000000000000000000000000000000000000000008152600401610c9e90611042565b60405180910390fd5b8181610cb391906111b3565b6000808673ffffffffffffffffffffffffffffffffffffffff1673ffffffffffffffffffffffffffffffffffffffff16815260200190815260200160002081905550816000808573ffffffffffffffffffffffffffffffffffffffff1673ffffffffffffffffffffffffffffffffffffffff1681526020019081526020016000206000828254610d43919061115d565b9250508190555050505050565b600081359050610d5f8161155f565b92915050565b600081359050610d7481611576565b92915050565b600060208284031215610d8c57600080fd5b6000610d9a84828501610d50565b91505092915050565b60008060408385031215610db657600080fd5b6000610dc485828601610d50565b9250506020610dd585828601610d50565b9150509250929050565b600080600060608486031215610df457600080fd5b6000610e0286828701610d50565b9350506020610e1386828701610d50565b9250506040610e2486828701610d65565b9150509250925092565b60008060408385031215610e4157600080fd5b6000610e4f85828601610d50565b9250506020610e6085828601610d65565b9150509250929050565b610e73816111f9565b82525050565b6000610e8482611141565b610e8e818561114c565b9350610e9e81856020860161123c565b610ea7816112ff565b840191505092915050565b6000610ebf60238361114c565b9150610eca82611310565b604082019050919050565b6000610ee260228361114c565b9150610eed8261135f565b604082019050919050565b6000610f0560268361114c565b9150610f10826113ae565b604082019050919050565b6000610f2860538361114c565b9150610f33826113fd565b606082019050919050565b6000610f4b60288361114c565b9150610f5682611472565b604082019050919050565b6000610f6e60258361114c565b9150610f79826114c1565b604082019050919050565b6000610f9160248361114c565b9150610f9c82611510565b604082019050919050565b610fb081611225565b82525050565b610fbf8161122f565b82525050565b6000602082019050610fda6000830184610e6a565b92915050565b60006020820190508181036000830152610ffa8184610e79565b905092915050565b6000602082019050818103600083015261101b81610eb2565b9050919050565b6000602082019050818103600083015261103b81610ed5565b9050919050565b6000602082019050818103600083015261105b81610ef8565b9050919050565b6000602082019050818103600083015261107b81610f1b565b9050919050565b6000602082019050818103600083015261109b81610f3e565b9050919050565b600060208201905081810360008301526110bb81610f61565b9050919050565b600060208201905081810360008301526110db81610f84565b9050919050565b60006020820190506110f76000830184610fa7565b92915050565b60006040820190506111126000830185610fa7565b61111f6020830184610fa7565b9392505050565b600060208201905061113b6000830184610fb6565b92915050565b600081519050919050565b600082825260208201905092915050565b600061116882611225565b915061117383611225565b9250827fffffffffffffffffffffffffffffffffffffffffffffffffffffffffffffffff038211156111a8576111a76112a1565b5b828201905092915050565b60006111be82611225565b91506111c983611225565b9250828210156111dc576111db6112a1565b5b828203905092915050565b60006111f282611205565b9050919050565b60008115159050919050565b600073ffffffffffffffffffffffffffffffffffffffff82169050919050565b6000819050919050565b600060ff82169050919050565b60005b8381101561125a57808201518184015260208101905061123f565b83811115611269576000848401525b50505050565b6000600282049050600182168061128757607f821691505b6020821081141561129b5761129a6112d0565b5b50919050565b7f4e487b7100000000000000000000000000000000000000000000000000000000600052601160045260246000fd5b7f4e487b7100000000000000000000000000000000000000000000000000000000600052602260045260246000fd5b6000601f19601f8301169050919050565b7f45524332303a207472616e7366657220746f20746865207a65726f206164647260008201527f6573730000000000000000000000000000000000000000000000000000000000602082015250565b7f45524332303a20617070726f766520746f20746865207a65726f20616464726560008201527f7373000000000000000000000000000000000000000000000000000000000000602082015250565b7f45524332303a207472616e7366657220616d6f756e742065786365656473206260008201527f616c616e63650000000000000000000000000000000000000000000000000000602082015250565b7f45524332303a2054686520616d6f756e7420746f206265207472616e7366657260008201527f72656420657863656564732074686520616d6f756e74206f6620746f6b656e7360208201527f2068656c6420627920746865206f776e65722e00000000000000000000000000604082015250565b7f45524332303a207472616e7366657220616d6f756e742065786365656473206160008201527f6c6c6f77616e6365000000000000000000000000000000000000000000000000602082015250565b7f45524332303a207472616e736665722066726f6d20746865207a65726f20616460008201527f6472657373000000000000000000000000000000000000000000000000000000602082015250565b7f45524332303a20617070726f76652066726f6d20746865207a65726f2061646460008201527f7265737300000000000000000000000000000000000000000000000000000000602082015250565b611568816111e7565b811461157357600080fd5b50565b61157f81611225565b811461158a57600080fd5b5056fea264697066735822122081fd315f41d41a0f703d7dddec88f11028a37c1e57991c9c759dfdf30121ba1964736f6c63430008010033",
  "immutableReferences": {},
  "source": "// SPDX-License-Identifier: UNLICENSED\npragma solidity ^0.8.1;\n\ninterface ERC20Interface{\n    function totalSupply() external view returns (uint256);\n    function balanceOf(address account) external view returns (uint256);\n    function transfer(address recipient, uint256 amount) external returns (bool);\n    function approve(address spender, uint256 amount) external returns (bool);\n    function allowance(address owner, address spender) external view returns (uint256);\n    function transferFrom(address spender, address recipient, uint256 amount) external returns (bool);\n\n    event Transfer(address indexed from, address indexed to, uint256 amount);\n    event Transfer(address indexed spender, address indexed from, address indexed to, uint256 amount);\n    event Approval(address indexed owner, address indexed spender, uint256 oldAmount, uint256 amount);\n}\n\ncontract MyERC20 is ERC20Interface{\n    mapping (address => uint256) private _balances;\n    mapping (address => mapping (address => uint256)) public _allowances;\n\n    uint256 public _totalSupply;\n    string public _name;\n    string public _symbol;\n    uint8 public _decimals;\n\n    constructor(string memory getName, string memory getSymbol) {\n        _name = getName;\n        _symbol = getSymbol;\n        _decimals = 18;\n        _totalSupply = 100000000e18;\n        _balances[msg.sender] = _totalSupply;\n    }\n    function name() public view returns (string memory) {\n        return _name;\n    }\n\n    function symbol() public view returns (string memory) {\n        return _symbol;\n    }\n\n    function decimals() public view returns (uint8) {\n        return _decimals;\n    }\n\n    function totalSupply() external view virtual override returns (uint256) {\n        return _totalSupply;\n    }\n\n    function balanceOf(address account) external view virtual override returns (uint256) {\n        return _balances[account];\n    }\n\n    function transfer(address recipient, uint amount) public virtual override returns (bool) {\n        _transfer(msg.sender, recipient, amount);\n        emit Transfer(msg.sender, recipient, amount);\n        return true;\n    }\n\n    function allowance(address owner, address spender) external view override returns (uint256) {\n        return _allowances[owner][spender];\n    }\n\n    function approve(address spender, uint amount) external virtual override returns (bool) {\n        uint256 currentAllowance = _allowances[msg.sender][spender];\n        require(_balances[msg.sender] >= amount,\"ERC20: The amount to be transferred exceeds the amount of tokens held by the owner.\");\n        _approve(msg.sender, spender, currentAllowance, amount);\n        return true;\n    }\n\n    function transferFrom(address sender, address recipient, uint256 amount) external virtual override returns (bool) {\n        _transfer(sender, recipient, amount);\n        emit Transfer(msg.sender, sender, recipient, amount);\n        uint256 currentAllowance = _allowances[sender][msg.sender];\n        require(currentAllowance >= amount, \"ERC20: transfer amount exceeds allowance\");\n        _approve(sender, msg.sender, currentAllowance, currentAllowance - amount);\n        return true;\n    }\n\n    function _transfer(address sender, address recipient, uint256 amount) internal virtual {\n        require(sender != address(0), \"ERC20: transfer from the zero address\");\n        require(recipient != address(0), \"ERC20: transfer to the zero address\");\n        uint256 senderBalance = _balances[sender];\n        require(senderBalance >= amount, \"ERC20: transfer amount exceeds balance\");\n        _balances[sender] = senderBalance - amount;\n        _balances[recipient] += amount;\n    }\n\n    function _approve(address owner, address spender, uint256 currentAmount, uint256 amount) internal virtual {\n        require(owner != address(0), \"ERC20: approve from the zero address\");\n        require(spender != address(0), \"ERC20: approve to the zero address\");\n        _allowances[owner][spender] = amount;\n        emit Approval(owner, spender, currentAmount, amount);\n    }\n}\n",
  "sourcePath": "/Users/bmore/Projects/codestates/Pr2_Ideas/beb-09-Ideas/contract/contracts/MyERC20.sol",
  "compiler": {
    "name": "solc",
    "version": "0.8.1+commit.df193b15.Emscripten.clang"
  },
  "schemaVersion": "3.4.14",
  "updatedAt": "2023-07-13T14:20:41.006Z",
  "networkType": "ethereum",
  "devdoc": {
    "kind": "dev",
    "methods": {},
    "version": 1
  },
  "userdoc": {
    "kind": "user",
    "methods": {},
    "version": 1
  }
}